{
  "contractName": "SalesContract",
  "abi": [
    {
      "constant": false,
      "inputs": [
        {
          "internalType": "string",
          "name": "orderHash",
          "type": "string"
        },
        {
          "internalType": "string",
          "name": "orderDate",
          "type": "string"
        },
        {
          "internalType": "string",
          "name": "shipDate",
          "type": "string"
        },
        {
          "internalType": "uint256",
          "name": "total",
          "type": "uint256"
        }
      ],
      "name": "createOrder",
      "outputs": [],
      "payable": false,
      "stateMutability": "nonpayable",
      "type": "function"
    },
    {
      "constant": false,
      "inputs": [
        {
          "internalType": "string",
          "name": "orderHash",
          "type": "string"
        },
        {
          "internalType": "string",
          "name": "orderDate",
          "type": "string"
        },
        {
          "internalType": "string",
          "name": "shipDate",
          "type": "string"
        },
        {
          "internalType": "string",
          "name": "status",
          "type": "string"
        },
        {
          "internalType": "uint256",
          "name": "total",
          "type": "uint256"
        }
      ],
      "name": "updateOrder",
      "outputs": [
        {
          "internalType": "bool",
          "name": "",
          "type": "bool"
        }
      ],
      "payable": false,
      "stateMutability": "nonpayable",
      "type": "function"
    },
    {
      "constant": false,
      "inputs": [
        {
          "internalType": "address",
          "name": "producer",
          "type": "address"
        },
        {
          "internalType": "string",
          "name": "dateAvailable",
          "type": "string"
        },
        {
          "internalType": "string",
          "name": "productHash",
          "type": "string"
        },
        {
          "internalType": "uint256",
          "name": "unitPrice",
          "type": "uint256"
        }
      ],
      "name": "addItem",
      "outputs": [
        {
          "internalType": "bool",
          "name": "",
          "type": "bool"
        }
      ],
      "payable": false,
      "stateMutability": "nonpayable",
      "type": "function"
    },
    {
      "constant": false,
      "inputs": [
        {
          "internalType": "address",
          "name": "producer",
          "type": "address"
        },
        {
          "internalType": "string",
          "name": "dateAvailable",
          "type": "string"
        },
        {
          "internalType": "string",
          "name": "productHash",
          "type": "string"
        },
        {
          "internalType": "uint256",
          "name": "unitPrice",
          "type": "uint256"
        }
      ],
      "name": "updateItem",
      "outputs": [
        {
          "internalType": "bool",
          "name": "",
          "type": "bool"
        }
      ],
      "payable": false,
      "stateMutability": "nonpayable",
      "type": "function"
    },
    {
      "constant": false,
      "inputs": [
        {
          "internalType": "string",
          "name": "productHash",
          "type": "string"
        }
      ],
      "name": "deleteItem",
      "outputs": [
        {
          "internalType": "bool",
          "name": "",
          "type": "bool"
        }
      ],
      "payable": false,
      "stateMutability": "nonpayable",
      "type": "function"
    },
    {
      "constant": false,
      "inputs": [
        {
          "internalType": "address",
          "name": "tokenContractAddress",
          "type": "address"
        },
        {
          "internalType": "address",
          "name": "receiver",
          "type": "address"
        },
        {
          "internalType": "address",
          "name": "escrowAcc",
          "type": "address"
        }
      ],
      "name": "placeOrder",
      "outputs": [
        {
          "internalType": "bool",
          "name": "",
          "type": "bool"
        }
      ],
      "payable": false,
      "stateMutability": "nonpayable",
      "type": "function"
    },
    {
      "constant": false,
      "inputs": [
        {
          "internalType": "address",
          "name": "tokenContractAddress",
          "type": "address"
        },
        {
          "internalType": "string",
          "name": "orderHash",
          "type": "string"
        },
        {
          "internalType": "string",
          "name": "status",
          "type": "string"
        },
        {
          "internalType": "address",
          "name": "receiver",
          "type": "address"
        }
      ],
      "name": "confirmShipment",
      "outputs": [
        {
          "internalType": "bool",
          "name": "",
          "type": "bool"
        }
      ],
      "payable": false,
      "stateMutability": "nonpayable",
      "type": "function"
    }
  ],
  "bytecode": "0x608060405234801561001057600080fd5b50611750806100206000396000f3fe608060405234801561001057600080fd5b506004361061007d5760003560e01c8063a1c49ff51161005b578063a1c49ff514610385578063b064c9bd14610578578063b8f08d331461070c578063e2c777a4146109ae5761007d565b80636521f4371461008257806373827500146101555780638842ca32146101f1575b600080fd5b61013b6004803603602081101561009857600080fd5b81019080803590602001906401000000008111156100b557600080fd5b8201836020820111156100c757600080fd5b803590602001918460018302840111640100000000831117156100e957600080fd5b91908080601f016020809104026020016040519081016040528093929190818152602001838380828437600081840152601f19601f820116905080830192505050505050509192919290505050610b58565b604051808215151515815260200191505060405180910390f35b6101d76004803603606081101561016b57600080fd5b81019080803573ffffffffffffffffffffffffffffffffffffffff169060200190929190803573ffffffffffffffffffffffffffffffffffffffff169060200190929190803573ffffffffffffffffffffffffffffffffffffffff169060200190929190505050610d32565b604051808215151515815260200191505060405180910390f35b61036b6004803603608081101561020757600080fd5b81019080803573ffffffffffffffffffffffffffffffffffffffff1690602001909291908035906020019064010000000081111561024457600080fd5b82018360208201111561025657600080fd5b8035906020019184600183028401116401000000008311171561027857600080fd5b91908080601f016020809104026020016040519081016040528093929190818152602001838380828437600081840152601f19601f820116905080830192505050505050509192919290803590602001906401000000008111156102db57600080fd5b8201836020820111156102ed57600080fd5b8035906020019184600183028401116401000000008311171561030f57600080fd5b91908080601f016020809104026020016040519081016040528093929190818152602001838380828437600081840152601f19601f82011690508083019250505050505050919291929080359060200190929190505050610e0c565b604051808215151515815260200191505060405180910390f35b6105766004803603608081101561039b57600080fd5b81019080803590602001906401000000008111156103b857600080fd5b8201836020820111156103ca57600080fd5b803590602001918460018302840111640100000000831117156103ec57600080fd5b91908080601f016020809104026020016040519081016040528093929190818152602001838380828437600081840152601f19601f8201169050808301925050505050505091929192908035906020019064010000000081111561044f57600080fd5b82018360208201111561046157600080fd5b8035906020019184600183028401116401000000008311171561048357600080fd5b91908080601f016020809104026020016040519081016040528093929190818152602001838380828437600081840152601f19601f820116905080830192505050505050509192919290803590602001906401000000008111156104e657600080fd5b8201836020820111156104f857600080fd5b8035906020019184600183028401116401000000008311171561051a57600080fd5b91908080601f016020809104026020016040519081016040528093929190818152602001838380828437600081840152601f19601f82011690508083019250505050505050919291929080359060200190929190505050610f41565b005b6106f26004803603608081101561058e57600080fd5b81019080803573ffffffffffffffffffffffffffffffffffffffff169060200190929190803590602001906401000000008111156105cb57600080fd5b8201836020820111156105dd57600080fd5b803590602001918460018302840111640100000000831117156105ff57600080fd5b91908080601f016020809104026020016040519081016040528093929190818152602001838380828437600081840152601f19601f8201169050808301925050505050505091929192908035906020019064010000000081111561066257600080fd5b82018360208201111561067457600080fd5b8035906020019184600183028401116401000000008311171561069657600080fd5b91908080601f016020809104026020016040519081016040528093929190818152602001838380828437600081840152601f19601f82011690508083019250505050505050919291929080359060200190929190505050610ff7565b604051808215151515815260200191505060405180910390f35b610994600480360360a081101561072257600080fd5b810190808035906020019064010000000081111561073f57600080fd5b82018360208201111561075157600080fd5b8035906020019184600183028401116401000000008311171561077357600080fd5b91908080601f016020809104026020016040519081016040528093929190818152602001838380828437600081840152601f19601f820116905080830192505050505050509192919290803590602001906401000000008111156107d657600080fd5b8201836020820111156107e857600080fd5b8035906020019184600183028401116401000000008311171561080a57600080fd5b91908080601f016020809104026020016040519081016040528093929190818152602001838380828437600081840152601f19601f8201169050808301925050505050505091929192908035906020019064010000000081111561086d57600080fd5b82018360208201111561087f57600080fd5b803590602001918460018302840111640100000000831117156108a157600080fd5b91908080601f016020809104026020016040519081016040528093929190818152602001838380828437600081840152601f19601f8201169050808301925050505050505091929192908035906020019064010000000081111561090457600080fd5b82018360208201111561091657600080fd5b8035906020019184600183028401116401000000008311171561093857600080fd5b91908080601f016020809104026020016040519081016040528093929190818152602001838380828437600081840152601f19601f8201169050808301925050505050505091929192908035906020019092919050505061124c565b604051808215151515815260200191505060405180910390f35b610b3e600480360360808110156109c457600080fd5b81019080803573ffffffffffffffffffffffffffffffffffffffff16906020019092919080359060200190640100000000811115610a0157600080fd5b820183602082011115610a1357600080fd5b80359060200191846001830284011164010000000083111715610a3557600080fd5b91908080601f016020809104026020016040519081016040528093929190818152602001838380828437600081840152601f19601f82011690508083019250505050505050919291929080359060200190640100000000811115610a9857600080fd5b820183602082011115610aaa57600080fd5b80359060200191846001830284011164010000000083111715610acc57600080fd5b91908080601f016020809104026020016040519081016040528093929190818152602001838380828437600081840152601f19601f820116905080830192505050505050509192919290803573ffffffffffffffffffffffffffffffffffffffff1690602001909291905050506113cb565b604051808215151515815260200191505060405180910390f35b600080600090505b600060020154811015610d2757826040516020018082805190602001908083835b60208310610ba45780518252602082019150602081019050602083039250610b81565b6001836020036101000a03801982511681845116808217855250505050505090500191505060405160208183030381529060405280519060200120600060010160008381526020019081526020016000206002016040516020018082805460018160011615610100020316600290048015610c565780601f10610c34576101008083540402835291820191610c56565b820191906000526020600020905b815481529060010190602001808311610c42575b5050915050604051602081830303815290604052805190602001201415610d1a57600080600101600083815260200190815260200160002060030154905060006001016000838152602001908152602001600020600080820160006101000a81549073ffffffffffffffffffffffffffffffffffffffff0219169055600182016000610ce29190611570565b600282016000610cf29190611570565b6003820160009055505080600060040160008282540392505081905550600192505050610d2d565b8080600101915050610b60565b50600090505b919050565b6000808490508073ffffffffffffffffffffffffffffffffffffffff16633152fddb846000600401546040518363ffffffff1660e01b8152600401808373ffffffffffffffffffffffffffffffffffffffff1673ffffffffffffffffffffffffffffffffffffffff16815260200182815260200192505050602060405180830381600087803b158015610dc457600080fd5b505af1158015610dd8573d6000803e3d6000fd5b505050506040513d6020811015610dee57600080fd5b81019080805190602001909291905050505060019150509392505050565b6000610e166115b8565b85816000019073ffffffffffffffffffffffffffffffffffffffff16908173ffffffffffffffffffffffffffffffffffffffff168152505084816020018190525083816040018190525082816060018181525050806000600101600080600201600081548092919060010191905055815260200190815260200160002060008201518160000160006101000a81548173ffffffffffffffffffffffffffffffffffffffff021916908373ffffffffffffffffffffffffffffffffffffffff1602179055506020820151816001019080519060200190610ef69291906115f6565b506040820151816002019080519060200190610f139291906115f6565b5060608201518160030155905050826000600401600082825401925050819055506001915050949350505050565b8260006003019080519060200190610f5a929190611676565b5083600080019080519060200190610f73929190611676565b508160006006019080519060200190610f8d929190611676565b506040518060400160405280600781526020017f637265617465640000000000000000000000000000000000000000000000000081525060006005019080519060200190610fdc929190611676565b50806000600401819055506000806002018190555050505050565b600080600090505b60006002015481101561123e57836040516020018082805190602001908083835b602083106110435780518252602082019150602081019050602083039250611020565b6001836020036101000a038019825116818451168082178552505050505050905001915050604051602081830303815290604052805190602001206000600101600083815260200190815260200160002060020160405160200180828054600181600116156101000203166002900480156110f55780601f106110d35761010080835404028352918201916110f5565b820191906000526020600020905b8154815290600101906020018083116110e1575b505091505060405160208183030381529060405280519060200120141561123157856000600101600083815260200190815260200160002060000160006101000a81548173ffffffffffffffffffffffffffffffffffffffff021916908373ffffffffffffffffffffffffffffffffffffffff1602179055508460006001016000838152602001908152602001600020600101908051906020019061119b929190611676565b50836000600101600083815260200190815260200160002060020190805190602001906111c9929190611676565b506000600101600082815260200190815260200160002060030154600060040160008282540392505081905550826000600101600083815260200190815260200160002060030181905550826000600401600082825401925050819055506001915050611244565b8080600101915050610fff565b50600090505b949350505050565b6000856040516020018082805190602001908083835b602083106112855780518252602082019150602081019050602083039250611262565b6001836020036101000a038019825116818451168082178552505050505050905001915050604051602081830303815290604052805190602001206000800160405160200180828054600181600116156101000203166002900480156113225780601f10611300576101008083540402835291820191611322565b820191906000526020600020905b81548152906001019060200180831161130e575b505091505060405160208183030381529060405280519060200120141561134c57600090506113c2565b8460006003019080519060200190611365929190611676565b508560008001908051906020019061137e929190611676565b508360006006019080519060200190611398929190611676565b5082600060050190805190602001906113b2929190611676565b5081600060040181905550600190505b95945050505050565b600060405160200180807f7368697070656400000000000000000000000000000000000000000000000000815250600701905060405160208183030381529060405280519060200120836040516020018082805190602001908083835b6020831061144b5780518252602082019150602081019050602083039250611428565b6001836020036101000a0380198251168184511680821785525050505050509050019150506040516020818303038152906040528051906020012014156115635760008590508073ffffffffffffffffffffffffffffffffffffffff16633152fddb846000600401546040518363ffffffff1660e01b8152600401808373ffffffffffffffffffffffffffffffffffffffff1673ffffffffffffffffffffffffffffffffffffffff16815260200182815260200192505050602060405180830381600087803b15801561151d57600080fd5b505af1158015611531573d6000803e3d6000fd5b505050506040513d602081101561154757600080fd5b8101908080519060200190929190505050506001915050611568565b600090505b949350505050565b50805460018160011615610100020316600290046000825580601f1061159657506115b5565b601f0160209004906000526020600020908101906115b491906116f6565b5b50565b6040518060800160405280600073ffffffffffffffffffffffffffffffffffffffff1681526020016060815260200160608152602001600081525090565b828054600181600116156101000203166002900490600052602060002090601f016020900481019282601f1061163757805160ff1916838001178555611665565b82800160010185558215611665579182015b82811115611664578251825591602001919060010190611649565b5b50905061167291906116f6565b5090565b828054600181600116156101000203166002900490600052602060002090601f016020900481019282601f106116b757805160ff19168380011785556116e5565b828001600101855582156116e5579182015b828111156116e45782518255916020019190600101906116c9565b5b5090506116f291906116f6565b5090565b61171891905b808211156117145760008160009055506001016116fc565b5090565b9056fea265627a7a7231582042f66e9c168c0fdc2aca9c1722cad6e565e616e074446550e28e5c7fb5eec15864736f6c63430005100032",
  "source": "pragma solidity ^0.5.16; \n\nimport \"./SimpleValueTokens.sol\";\n\n/* enables the farmers to publish thier products and provides kind of e-commerce functionality */\ncontract SalesContract {\n    /* item being sold will be published by the Farmer */\n    struct Item{\n        address producer;\n        string dateAvailable;\n        string productHash;\n        uint unitPrice;\n    }\n\n    /* Once any consumer places the order */\n    struct Order {\n        string orderHash; \n        /* All the items on the we are selling thorugh this contracts */         \n        mapping(uint => Item) items;\n        uint totItems;\n        string orderDate;\n        uint total;\n        string status;\n        string shipDate;\n    }  \n    \n    // current order this cntract handles\n    Order curOrder ;   \n\n    // just cretaes and initializes the order structure\n    function createOrder(string memory orderHash, string memory orderDate, string memory shipDate, uint total) public {\n        curOrder.orderDate = orderDate;\n        curOrder.orderHash = orderHash;\n        curOrder.shipDate = shipDate;\n        curOrder.status = \"created\";\n        curOrder.total = total;\n        curOrder.totItems = 0;\n    }\n\n    // Updates the order info, even delete order uses the same method with status \"deleted\"\n    function updateOrder(string memory orderHash, string memory orderDate, string memory shipDate, string memory status, uint total) public returns (bool){\n        // check whether any order exist with given input\n        if(keccak256(abi.encodePacked(curOrder.orderHash)) == keccak256(abi.encodePacked(orderHash))) return false; \n        // if the order insitialized exists\n        curOrder.orderDate = orderDate;\n        curOrder.orderHash = orderHash;\n        curOrder.shipDate = shipDate;\n        curOrder.status = status; \n        curOrder.total = total;\n        return true;\n    }\n\n    /* Adds an item to the sales section  */\n    function addItem(address producer, string memory dateAvailable, string memory productHash, uint unitPrice) public returns (bool) {\n        Item memory strcItem;\n        strcItem.producer = producer;\n        strcItem.dateAvailable = dateAvailable;\n        strcItem.productHash = productHash;\n        strcItem.unitPrice = unitPrice;\n        curOrder.items[curOrder.totItems++] = strcItem;\n        curOrder.total += unitPrice;\n        return true;\n    }\n\n    // update an item in the order\n    function updateItem(address producer, string memory dateAvailable, string memory productHash, uint unitPrice) public returns (bool){\n        for (uint i=0; i<curOrder.totItems; i ++) {\n            if (keccak256(abi.encodePacked(curOrder.items[i].productHash)) == keccak256(abi.encodePacked(productHash))) {\n                curOrder.items[i].producer = producer;\n                curOrder.items[i].dateAvailable = dateAvailable;\n                curOrder.items[i].productHash = productHash;\n                curOrder.total -= curOrder.items[i].unitPrice;\n                curOrder.items[i].unitPrice = unitPrice;\n                curOrder.total += unitPrice;\n                return true;\n            }\n        }\n        return false;\n    }\n\n    // deletes an item from the order\n    function deleteItem(string memory productHash) public returns (bool) {\n         for (uint i=0; i<curOrder.totItems; i++) {\n            if (keccak256(abi.encodePacked(curOrder.items[i].productHash)) == keccak256(abi.encodePacked(productHash))) {\n                uint itemPrice = curOrder.items[i].unitPrice;\n                delete curOrder.items[i]; \n                curOrder.total -= itemPrice;\n                return true;\n            }\n        }\n        return false;\n    }\n\n    // places the order and momve the tokens to an excrow until consumer receives goods\n    function placeOrder(address tokenContractAddress, address receiver, address escrowAcc) public returns (bool) {\n        // places the order via an escrow\n        SimpleValueTokens tokens = SimpleValueTokens(tokenContractAddress);\n\t\ttokens.PayTokens(escrowAcc, curOrder.total);\n        return true;\n    }\n\n    function confirmShipment (address tokenContractAddress, string memory orderHash, string memory status, address receiver) public returns (bool) {\n        if (keccak256(abi.encodePacked(status)) == keccak256 (abi.encodePacked(\"shipped\"))) {\n            //TODO Move tokens from escrow to end user\n            SimpleValueTokens tokens = SimpleValueTokens(tokenContractAddress);\n            tokens.PayTokens(receiver, curOrder.total);\n            return true;\n        }\n        return false;\n    }\n\n}\n",
  "sourcePath": "/home/gegs/AgroChain/smartContracts/contracts/SalesContract.sol",
  "compiler": {
    "name": "solc",
    "version": "0.5.16+commit.9c3226ce.Emscripten.clang"
  },
  "schemaVersion": "3.0.23",
  "updatedAt": "2020-03-15T03:31:39.897Z",
  "devdoc": {
    "methods": {}
  },
  "userdoc": {
    "methods": {}
  }
}