{
  "contractName": "FarmProduce",
  "abi": [
    {
      "inputs": [],
      "payable": false,
      "stateMutability": "nonpayable",
      "type": "constructor"
    },
    {
      "constant": false,
      "inputs": [
        {
          "internalType": "string",
          "name": "hashkey",
          "type": "string"
        },
        {
          "internalType": "string",
          "name": "pname",
          "type": "string"
        },
        {
          "internalType": "string",
          "name": "protype",
          "type": "string"
        },
        {
          "internalType": "string",
          "name": "sdate",
          "type": "string"
        },
        {
          "internalType": "string",
          "name": "eTime",
          "type": "string"
        },
        {
          "internalType": "uint256",
          "name": "qty",
          "type": "uint256"
        },
        {
          "internalType": "string",
          "name": "log",
          "type": "string"
        },
        {
          "internalType": "uint256",
          "name": "amount",
          "type": "uint256"
        }
      ],
      "name": "registerNewCrop",
      "outputs": [
        {
          "internalType": "bool",
          "name": "",
          "type": "bool"
        }
      ],
      "payable": false,
      "stateMutability": "nonpayable",
      "type": "function"
    },
    {
      "constant": false,
      "inputs": [
        {
          "internalType": "string",
          "name": "hashkey",
          "type": "string"
        },
        {
          "internalType": "string",
          "name": "pname",
          "type": "string"
        },
        {
          "internalType": "string",
          "name": "protype",
          "type": "string"
        },
        {
          "internalType": "string",
          "name": "sdate",
          "type": "string"
        },
        {
          "internalType": "string",
          "name": "eTime",
          "type": "string"
        },
        {
          "internalType": "uint256",
          "name": "qty",
          "type": "uint256"
        },
        {
          "internalType": "uint256",
          "name": "unitPrice",
          "type": "uint256"
        },
        {
          "internalType": "string",
          "name": "unit",
          "type": "string"
        },
        {
          "internalType": "string",
          "name": "log",
          "type": "string"
        },
        {
          "internalType": "uint256",
          "name": "amount",
          "type": "uint256"
        },
        {
          "internalType": "string",
          "name": "status",
          "type": "string"
        }
      ],
      "name": "updateCropInfo",
      "outputs": [
        {
          "internalType": "bool",
          "name": "",
          "type": "bool"
        }
      ],
      "payable": false,
      "stateMutability": "nonpayable",
      "type": "function"
    },
    {
      "constant": false,
      "inputs": [
        {
          "internalType": "string",
          "name": "hashkey",
          "type": "string"
        },
        {
          "internalType": "string",
          "name": "log",
          "type": "string"
        }
      ],
      "name": "logWork",
      "outputs": [
        {
          "internalType": "bool",
          "name": "",
          "type": "bool"
        }
      ],
      "payable": false,
      "stateMutability": "nonpayable",
      "type": "function"
    },
    {
      "constant": false,
      "inputs": [
        {
          "internalType": "string",
          "name": "hashkey",
          "type": "string"
        }
      ],
      "name": "verifyCrop",
      "outputs": [
        {
          "internalType": "uint256",
          "name": "index",
          "type": "uint256"
        }
      ],
      "payable": false,
      "stateMutability": "nonpayable",
      "type": "function"
    },
    {
      "constant": false,
      "inputs": [
        {
          "internalType": "string",
          "name": "_a",
          "type": "string"
        },
        {
          "internalType": "string",
          "name": "_b",
          "type": "string"
        }
      ],
      "name": "compare",
      "outputs": [
        {
          "internalType": "int256",
          "name": "",
          "type": "int256"
        }
      ],
      "payable": false,
      "stateMutability": "nonpayable",
      "type": "function"
    },
    {
      "constant": false,
      "inputs": [],
      "name": "getTotItems",
      "outputs": [
        {
          "internalType": "uint256",
          "name": "",
          "type": "uint256"
        }
      ],
      "payable": false,
      "stateMutability": "nonpayable",
      "type": "function"
    }
  ],
  "bytecode": "0x608060405260056000806101000a81548163ffffffff021916908363ffffffff16021790555034801561003157600080fd5b50600060018190555061161b806100496000396000f3fe608060405234801561001057600080fd5b50600436106100625760003560e01c80633a96fdd7146100675780635171071f146101cd5780635bb6671b146101eb578063b9e2a7ff146105c6578063c038cb2c14610730578063f40704ae14610c43575b600080fd5b6101b76004803603604081101561007d57600080fd5b810190808035906020019064010000000081111561009a57600080fd5b8201836020820111156100ac57600080fd5b803590602001918460018302840111640100000000831117156100ce57600080fd5b91908080601f016020809104026020016040519081016040528093929190818152602001838380828437600081840152601f19601f8201169050808301925050505050505091929192908035906020019064010000000081111561013157600080fd5b82018360208201111561014357600080fd5b8035906020019184600183028401116401000000008311171561016557600080fd5b91908080601f016020809104026020016040519081016040528093929190818152602001838380828437600081840152601f19601f820116905080830192505050505050509192919290505050610d12565b6040518082815260200191505060405180910390f35b6101d5610ed0565b6040518082815260200191505060405180910390f35b6105ac600480360361010081101561020257600080fd5b810190808035906020019064010000000081111561021f57600080fd5b82018360208201111561023157600080fd5b8035906020019184600183028401116401000000008311171561025357600080fd5b91908080601f016020809104026020016040519081016040528093929190818152602001838380828437600081840152601f19601f820116905080830192505050505050509192919290803590602001906401000000008111156102b657600080fd5b8201836020820111156102c857600080fd5b803590602001918460018302840111640100000000831117156102ea57600080fd5b91908080601f016020809104026020016040519081016040528093929190818152602001838380828437600081840152601f19601f8201169050808301925050505050505091929192908035906020019064010000000081111561034d57600080fd5b82018360208201111561035f57600080fd5b8035906020019184600183028401116401000000008311171561038157600080fd5b91908080601f016020809104026020016040519081016040528093929190818152602001838380828437600081840152601f19601f820116905080830192505050505050509192919290803590602001906401000000008111156103e457600080fd5b8201836020820111156103f657600080fd5b8035906020019184600183028401116401000000008311171561041857600080fd5b91908080601f016020809104026020016040519081016040528093929190818152602001838380828437600081840152601f19601f8201169050808301925050505050505091929192908035906020019064010000000081111561047b57600080fd5b82018360208201111561048d57600080fd5b803590602001918460018302840111640100000000831117156104af57600080fd5b91908080601f016020809104026020016040519081016040528093929190818152602001838380828437600081840152601f19601f820116905080830192505050505050509192919290803590602001909291908035906020019064010000000081111561051c57600080fd5b82018360208201111561052e57600080fd5b8035906020019184600183028401116401000000008311171561055057600080fd5b91908080601f016020809104026020016040519081016040528093929190818152602001838380828437600081840152601f19601f82011690508083019250505050505050919291929080359060200190929190505050610eda565b604051808215151515815260200191505060405180910390f35b610716600480360360408110156105dc57600080fd5b81019080803590602001906401000000008111156105f957600080fd5b82018360208201111561060b57600080fd5b8035906020019184600183028401116401000000008311171561062d57600080fd5b91908080601f016020809104026020016040519081016040528093929190818152602001838380828437600081840152601f19601f8201169050808301925050505050505091929192908035906020019064010000000081111561069057600080fd5b8201836020820111156106a257600080fd5b803590602001918460018302840111640100000000831117156106c457600080fd5b91908080601f016020809104026020016040519081016040528093929190818152602001838380828437600081840152601f19601f8201169050808301925050505050505091929192905050506111f4565b604051808215151515815260200191505060405180910390f35b610c29600480360361016081101561074757600080fd5b810190808035906020019064010000000081111561076457600080fd5b82018360208201111561077657600080fd5b8035906020019184600183028401116401000000008311171561079857600080fd5b91908080601f016020809104026020016040519081016040528093929190818152602001838380828437600081840152601f19601f820116905080830192505050505050509192919290803590602001906401000000008111156107fb57600080fd5b82018360208201111561080d57600080fd5b8035906020019184600183028401116401000000008311171561082f57600080fd5b91908080601f016020809104026020016040519081016040528093929190818152602001838380828437600081840152601f19601f8201169050808301925050505050505091929192908035906020019064010000000081111561089257600080fd5b8201836020820111156108a457600080fd5b803590602001918460018302840111640100000000831117156108c657600080fd5b91908080601f016020809104026020016040519081016040528093929190818152602001838380828437600081840152601f19601f8201169050808301925050505050505091929192908035906020019064010000000081111561092957600080fd5b82018360208201111561093b57600080fd5b8035906020019184600183028401116401000000008311171561095d57600080fd5b91908080601f016020809104026020016040519081016040528093929190818152602001838380828437600081840152601f19601f820116905080830192505050505050509192919290803590602001906401000000008111156109c057600080fd5b8201836020820111156109d257600080fd5b803590602001918460018302840111640100000000831117156109f457600080fd5b91908080601f016020809104026020016040519081016040528093929190818152602001838380828437600081840152601f19601f820116905080830192505050505050509192919290803590602001909291908035906020019092919080359060200190640100000000811115610a6b57600080fd5b820183602082011115610a7d57600080fd5b80359060200191846001830284011164010000000083111715610a9f57600080fd5b91908080601f016020809104026020016040519081016040528093929190818152602001838380828437600081840152601f19601f82011690508083019250505050505050919291929080359060200190640100000000811115610b0257600080fd5b820183602082011115610b1457600080fd5b80359060200191846001830284011164010000000083111715610b3657600080fd5b91908080601f016020809104026020016040519081016040528093929190818152602001838380828437600081840152601f19601f8201169050808301925050505050505091929192908035906020019092919080359060200190640100000000811115610ba357600080fd5b820183602082011115610bb557600080fd5b80359060200191846001830284011164010000000083111715610bd757600080fd5b91908080601f016020809104026020016040519081016040528093929190818152602001838380828437600081840152601f19601f82011690508083019250505050505050919291929050505061124c565b604051808215151515815260200191505060405180910390f35b610cfc60048036036020811015610c5957600080fd5b8101908080359060200190640100000000811115610c7657600080fd5b820183602082011115610c8857600080fd5b80359060200191846001830284011164010000000083111715610caa57600080fd5b91908080601f016020809104026020016040519081016040528093929190818152602001838380828437600081840152601f19601f820116905080830192505050505050509192919290505050611440565b6040518082815260200191505060405180910390f35b6000606083905060608390506000825190508082511015610d3257815190505b60008090505b81811015610e7657828181518110610d4c57fe5b602001015160f81c60f81b7effffffffffffffffffffffffffffffffffffffffffffffffffffffffffffff1916848281518110610d8557fe5b602001015160f81c60f81b7effffffffffffffffffffffffffffffffffffffffffffffffffffffffffffff19161015610de4577fffffffffffffffffffffffffffffffffffffffffffffffffffffffffffffffff945050505050610eca565b828181518110610df057fe5b602001015160f81c60f81b7effffffffffffffffffffffffffffffffffffffffffffffffffffffffffffff1916848281518110610e2957fe5b602001015160f81c60f81b7effffffffffffffffffffffffffffffffffffffffffffffffffffffffffffff19161115610e69576001945050505050610eca565b8080600101915050610d38565b50815183511015610eac577fffffffffffffffffffffffffffffffffffffffffffffffffffffffffffffffff9350505050610eca565b815183511115610ec25760019350505050610eca565b600093505050505b92915050565b6000600154905090565b60008060009054906101000a900463ffffffff1663ffffffff1660015410610f0557600090506111e8565b6000339050896002600060015481526020019081526020016000206000019080519060200190610f36929190611541565b50886002600060015481526020019081526020016000206001019080519060200190610f63929190611541565b50876002600060015481526020019081526020016000206002019080519060200190610f90929190611541565b50866002600060015481526020019081526020016000206003019080519060200190610fbd929190611541565b50856002600060015481526020019081526020016000206004019080519060200190610fea929190611541565b508460026000600154815260200190815260200160002060050181905550600060026000600154815260200190815260200160002060060181905550836002600060015481526020019081526020016000206008019080519060200190611052929190611541565b508060026000600154815260200190815260200160002060090160006101000a81548173ffffffffffffffffffffffffffffffffffffffff021916908373ffffffffffffffffffffffffffffffffffffffff1602179055506040518060400160405280600781526020017f6372656174656400000000000000000000000000000000000000000000000000815250600260006001548152602001908152602001600020600a01908051906020019061110b929190611541565b506000600260006001548152602001908152602001600020600c01819055506000600260006001548152602001908152602001600020600c0154905042600260006001548152602001908152602001600020600b0160008381526020019081526020016000206000018190555083600260006001548152602001908152602001600020600b01600083815260200190815260200160002060010181905550600260006001548152602001908152602001600020600c0160008154809291906001019190505550600180600082825401925050819055506001925050505b98975050505050505050565b60008061120084611440565b90506063811415611215576000915050611246565b8260026000838152602001908152602001600020600801908051906020019061123f929190611541565b5060019150505b92915050565b6000806112588d611440565b9050606381141561126d576000915050611431565b60003390508c60026000848152602001908152602001600020600101908051906020019061129c929190611541565b508b6002600084815260200190815260200160002060020190805190602001906112c7929190611541565b508a6002600084815260200190815260200160002060030190805190602001906112f2929190611541565b508960026000848152602001908152602001600020600401908051906020019061131d929190611541565b508860026000848152602001908152602001600020600501819055508760026000848152602001908152602001600020600601819055508660026000848152602001908152602001600020600701908051906020019061137e929190611541565b50856002600084815260200190815260200160002060080190805190602001906113a9929190611541565b50806002600084815260200190815260200160002060090160006101000a81548173ffffffffffffffffffffffffffffffffffffffff021916908373ffffffffffffffffffffffffffffffffffffffff1602179055508360026000848152602001908152602001600020600a019080519060200190611429929190611541565b506001925050505b9b9a5050505050505050505050565b600080600090505b600154811015611536576060600260008381526020019081526020016000206000018054600181600116156101000203166002900480601f0160208091040260200160405190810160405280929190818152602001828054600181600116156101000203166002900480156114fe5780601f106114d3576101008083540402835291602001916114fe565b820191906000526020600020905b8154815290600101906020018083116114e157829003601f168201915b5050505050905060006115118286610d12565b905060008114156115275782935050505061153c565b50508080600101915050611448565b50606390505b919050565b828054600181600116156101000203166002900490600052602060002090601f016020900481019282601f1061158257805160ff19168380011785556115b0565b828001600101855582156115b0579182015b828111156115af578251825591602001919060010190611594565b5b5090506115bd91906115c1565b5090565b6115e391905b808211156115df5760008160009055506001016115c7565b5090565b9056fea265627a7a72315820278e140229c47f18d127a6136ed618a3d243f6c0bb13bdb05c71a0643ba5ee1e64736f6c63430005100032",
  "source": "pragma solidity ^0.5.16;\n\n//registers all the farmer contracts t track his work\ncontract FarmProduce {\n\n    // Crop infomration data structure\n    struct Crop {  \n        string storageHashkey;\n        string name;\n        string pType; \n        string startDate;\n        string endTime;\n        uint quantity;  \n\t\tuint unitPrice;\n\t\tstring unit;\n        string log; \n        address seeder;//who supplied seeds\n        string status;\n\n        mapping (uint=> Investment) investments;\n\t\tuint numInvests;\n    } \n   \n\t//For tracking the investments\n    struct Investment {\n        uint when;\n        uint amount;\n    }\n\n    // just to restrict centralized crop registrations... \n    uint32 maxCropsAllowed = 5;\n\n\t// To maintain the number of Crops \n\tuint totItems;\n\n    // hold all the crops thats being produced/produced by a farmer  \n    mapping (uint => Crop) crops;\n\n\t// Constructor\n\tconstructor() public {\n\t\ttotItems = 0;\n\t}\n\n\n\t    // Farmer can create a new Crop when a new farming season begins\n    function registerNewCrop(string memory hashkey, string memory pname, string memory protype, string memory sdate, string memory eTime, uint qty, string memory log, uint amount) public returns (bool) {\n\n        if ( totItems >= maxCropsAllowed) return false;\n\n        //Crop nCrop;\n\n\t\taddress seedPro = msg.sender;\n\n        crops[totItems].storageHashkey = hashkey;\n        crops[totItems].name = pname;\n        crops[totItems].pType = protype;\n        crops[totItems].startDate = sdate;\n        crops[totItems].endTime = eTime;\n        crops[totItems].quantity = qty;\n\t\tcrops[totItems].unitPrice = 0;\n        crops[totItems].log = log;\n        crops[totItems].seeder = seedPro;\n        crops[totItems].status = \"created\";\n\n\t\t// For Investments\n\t\tcrops[totItems].numInvests = 0;\n\t\tuint nInvests = crops[totItems].numInvests;\n\n        crops[totItems].investments[nInvests].when = now;\n        crops[totItems].investments[nInvests].amount = amount; \n        crops[totItems].numInvests++;\n\n\t\ttotItems += 1;\n\n        return true;\n    }\n\n\t// updates allowed crop information\n    function updateCropInfo(string memory hashkey, string memory pname, string memory protype, string memory sdate, \n                            string memory eTime, uint qty, uint unitPrice, string memory unit, string memory log, uint amount, string memory status) public returns (bool) {\n        \n\t\t//Check whetherthat crop exists or not\n        uint index = verifyCrop(hashkey);\n        if ( index == 99) return false;\n        \n\t\taddress seedPro = msg.sender;\n\n\t\t// map the fields\n        crops[index].name = pname;\n        crops[index].pType = protype;\n        crops[index].startDate = sdate;\n        crops[index].endTime = eTime;\n        crops[index].quantity = qty;\n\t\tcrops[index].unitPrice = unitPrice;\n\t\tcrops[index].unit = unit;\n        crops[index].log = log;\n        crops[index].seeder = seedPro;\n        crops[index].status = status;\n\n        return true;\n    }\n\n\t//logs work info \n    function logWork(string memory hashkey, string memory log) public returns (bool) {\n         //Check whetherthat crop exists or not\n        uint index = verifyCrop(hashkey);\n        if ( index == 99) return false; \n        crops[index].log = log; \n        return true;\n    }\n\n    // requires to validate that this particular product actually produced or not\n    function verifyCrop(string memory hashkey) public returns (uint index) {\n        for (uint i = 0; i < totItems; i++) {\n\t\t\tstring memory sHashkey = crops[i].storageHashkey;\n\t\t\tint iEqs = compare(sHashkey, hashkey);\n            //if (sha3(sHashkey) == sha3(hashkey)) {\n\t\t\tif (iEqs == 0) {\n                return i;\n            }\n        } \n        return 99;\n    }\n\n\t// To Compare two strings\n\tfunction compare(string memory _a, string memory _b) public returns (int) {\n        bytes memory a = bytes(_a);\n        bytes memory b = bytes(_b);\n        uint minLength = a.length;\n        if (b.length < minLength) minLength = b.length;\n        //@todo unroll the loop into increments of 32 and do full 32 byte comparisons\n        for (uint i = 0; i < minLength; i ++)\n            if (a[i] < b[i])\n                return -1;\n            else if (a[i] > b[i])\n                return 1;\n        if (a.length < b.length)\n            return -1;\n        else if (a.length > b.length)\n            return 1;\n        else\n            return 0;\n    }\n\n\tfunction getTotItems() public returns (uint) {\n\t\treturn totItems;\n\t}\n\n}\n\n\n",
  "sourcePath": "/home/gegs/AgroChain/smartContracts/contracts/FarmProduce.sol",
  "compiler": {
    "name": "solc",
    "version": "0.5.16+commit.9c3226ce.Emscripten.clang"
  },
  "schemaVersion": "3.0.23",
  "updatedAt": "2020-03-15T04:24:59.217Z",
  "networkType": "ethereum",
  "devdoc": {
    "methods": {}
  },
  "userdoc": {
    "methods": {}
  }
}