{
  "contractName": "SimpleValueTokens",
  "abi": [
    {
      "inputs": [],
      "payable": false,
      "stateMutability": "nonpayable",
      "type": "constructor"
    },
    {
      "anonymous": false,
      "inputs": [
        {
          "indexed": true,
          "internalType": "address",
          "name": "_from",
          "type": "address"
        },
        {
          "indexed": true,
          "internalType": "address",
          "name": "_to",
          "type": "address"
        },
        {
          "indexed": false,
          "internalType": "uint256",
          "name": "_value",
          "type": "uint256"
        }
      ],
      "name": "Transfer",
      "type": "event"
    },
    {
      "constant": true,
      "inputs": [],
      "name": "TOKEN2INRRATE",
      "outputs": [
        {
          "internalType": "uint256",
          "name": "",
          "type": "uint256"
        }
      ],
      "payable": false,
      "stateMutability": "view",
      "type": "function"
    },
    {
      "constant": false,
      "inputs": [
        {
          "internalType": "address",
          "name": "receiver",
          "type": "address"
        },
        {
          "internalType": "uint256",
          "name": "numTokens",
          "type": "uint256"
        }
      ],
      "name": "PayTokens",
      "outputs": [
        {
          "internalType": "bool",
          "name": "",
          "type": "bool"
        }
      ],
      "payable": false,
      "stateMutability": "nonpayable",
      "type": "function"
    },
    {
      "constant": false,
      "inputs": [
        {
          "internalType": "address",
          "name": "account",
          "type": "address"
        }
      ],
      "name": "getBalance",
      "outputs": [
        {
          "internalType": "uint256",
          "name": "",
          "type": "uint256"
        }
      ],
      "payable": false,
      "stateMutability": "nonpayable",
      "type": "function"
    },
    {
      "constant": true,
      "inputs": [
        {
          "internalType": "uint256",
          "name": "currency",
          "type": "uint256"
        }
      ],
      "name": "convert2Tokens",
      "outputs": [
        {
          "internalType": "uint256",
          "name": "",
          "type": "uint256"
        }
      ],
      "payable": false,
      "stateMutability": "view",
      "type": "function"
    },
    {
      "constant": true,
      "inputs": [
        {
          "internalType": "uint256",
          "name": "numTokens",
          "type": "uint256"
        }
      ],
      "name": "convert2Currency",
      "outputs": [
        {
          "internalType": "uint256",
          "name": "",
          "type": "uint256"
        }
      ],
      "payable": false,
      "stateMutability": "view",
      "type": "function"
    }
  ],
  "bytecode": "0x6080604052600a60015534801561001557600080fd5b506161a86000803273ffffffffffffffffffffffffffffffffffffffff1673ffffffffffffffffffffffffffffffffffffffff168152602001908152602001600020819055506103bb8061006a6000396000f3fe608060405234801561001057600080fd5b50600436106100575760003560e01c80632fdaabd71461005c5780633152fddb1461009e578063a1508c9514610104578063da2dd1fb14610146578063f8b2cb4f14610164575b600080fd5b6100886004803603602081101561007257600080fd5b81019080803590602001909291905050506101bc565b6040518082815260200191505060405180910390f35b6100ea600480360360408110156100b457600080fd5b81019080803573ffffffffffffffffffffffffffffffffffffffff169060200190929190803590602001909291905050506101d1565b604051808215151515815260200191505060405180910390f35b6101306004803603602081101561011a57600080fd5b810190808035906020019092919050505061032a565b6040518082815260200191505060405180910390f35b61014e610338565b6040518082815260200191505060405180910390f35b6101a66004803603602081101561017a57600080fd5b81019080803573ffffffffffffffffffffffffffffffffffffffff16906020019092919050505061033e565b6040518082815260200191505060405180910390f35b600060015482816101c957fe5b049050919050565b6000816000803373ffffffffffffffffffffffffffffffffffffffff1673ffffffffffffffffffffffffffffffffffffffff1681526020019081526020016000205410156102225760009050610324565b816000803373ffffffffffffffffffffffffffffffffffffffff1673ffffffffffffffffffffffffffffffffffffffff16815260200190815260200160002060008282540392505081905550816000808573ffffffffffffffffffffffffffffffffffffffff1673ffffffffffffffffffffffffffffffffffffffff168152602001908152602001600020600082825401925050819055508273ffffffffffffffffffffffffffffffffffffffff163373ffffffffffffffffffffffffffffffffffffffff167fddf252ad1be2c89b69c2b068fc378daa952ba7f163c4a11628f55a4df523b3ef846040518082815260200191505060405180910390a3600190505b92915050565b600060015482029050919050565b60015481565b60008060008373ffffffffffffffffffffffffffffffffffffffff1673ffffffffffffffffffffffffffffffffffffffff16815260200190815260200160002054905091905056fea265627a7a72315820917d1e3af36409b1b030117f08d63b91d680f13fb6af002a8b40ff22f2245d8664736f6c63430005100032",
  "source": "pragma solidity ^0.5.16;\n\nimport \"./ConvertLib.sol\";\n\ncontract SimpleValueTokens {\n    // holds the current balances of all accounts\n\tmapping (address => uint) balances;\n    \n    uint public TOKEN2INRRATE = 10; \n\n    // Tranfer Event\n\tevent Transfer(address indexed _from, address indexed _to, uint256 _value);\n\n    // Constructor... initially every account given with 25000 tokens for trade \n    constructor() public {\n        balances[tx.origin] = 25000;\n    }\n\n    // Pay coins to others...\n    function PayTokens(address receiver, uint numTokens) public returns (bool) {\n        // if not enough coins availble \n        if (balances[msg.sender] < numTokens) return false;\n        balances[msg.sender] -= numTokens;\n        balances[receiver] += numTokens;\n        emit Transfer(msg.sender, receiver, numTokens);\n        return true;\n    }\n\n    // returns the balance of the account\n    function getBalance(address account) public returns (uint) {\n        return balances[account];\n    }\n\n    // Convert INR to value tokens \n\tfunction convert2Tokens(uint currency) public view returns (uint){\n        return currency / TOKEN2INRRATE ;\n    }\n\n    // Convert INR to value tokens \n\tfunction convert2Currency(uint numTokens) public view returns (uint){\n        return numTokens * TOKEN2INRRATE ;\n    } \n} ",
  "sourcePath": "/home/gegs/AgroChain/smartContracts/contracts/SimpleValueTokens.sol",
  "compiler": {
    "name": "solc",
    "version": "0.5.16+commit.9c3226ce.Emscripten.clang"
  },
  "schemaVersion": "3.0.23",
  "updatedAt": "2020-03-15T03:31:39.901Z",
  "devdoc": {
    "methods": {}
  },
  "userdoc": {
    "methods": {}
  }
}